:08000000803102288731F42F42
:1008D40001348531F52584316B2C0800843196244C
:1008E400843184316B2484318031022821000E103C
:1008F4008E100E118E110E128E120E130800F300BC
:10090400F201731C862C872C8B2C7008F100710863
:10091400F2070310F00D0310F30C7308031D932C5E
:10092400942C832C7208080021009513FF302400B6
:100934008D00FF3021008D00FF3020008D0023004A
:100944008D0120008E018F0121008E018F01FF3067
:100954008C000C128C1223008C0184317824843195
:100964000800F401F501701CB82CB92CBD2C7208D8
:10097400F4077308F53D0130F235F30D890BBE2CF5
:100984000130F136F00C890BC32C70087104031D7F
:10099400CC2CCD2CB52C7508F1007408F00008009F
:1009A400F200F40170080319D82CD92CF92CF301A6
:1009B400F30AE22C0310F00D0130F1007108F30783
:1009C400F01FE52CE62CDC2C0310F40D70087202E9
:1009D400031CED2CEE2CF12C7008F202741403109D
:1009E400F00C0130F302031DF82CF92CE62C7408EA
:1009F40008000A30F0000030F1007A08F3007908AA
:100A0400F20085319625843171082000A300700816
:100A1400A2000A30F0000030F1007A08F3007908EF
:100A2400F20085314325843171082000A10070084B
:100A3400A00020088631652684310D30FC00AF30DB
:100A4400FB00B630890B242DFB0B242DFC0B242D2D
:100A5400003222000C168C120D30FC00AF30FB006B
:100A6400B630890B332DFB0B332DFC0B332D0032A9
:100A74002000220886316526843122000C128C164F
:100A84000800F601F31F472D482D4F2DF209F309F5
:100A9400F20A0319F30AF601F60AF11F522D532D37
:100AA400582DF009F109F00A0319F10A70087104CC
:100AB40003195D2D5E2D872DF501F50A6A2D013090
:100AC400F035F10D890B622D0130F4007408F5073F
:100AD400F11F6D2D6E2D612D71087302031D742D90
:100AE40070087202031C772D782D7C2D7008F20299
:100AF4007108F33B0130F136F00C890B7D2D013088
:100B0400F502031D862D872D6E2D760803198B2D76
:100B14008C2D912DF209F309F20A0319F30A7308D3
:100B2400F1007208F0000800F601F11F9A2D9B2DC8
:100B3400A22DF009F109F00A0319F10AF601F60AE7
:100B4400F31FA52DA62DAF2DF209F309F20A0319FF
:100B5400F30A0130F4007408F606F701F80170088E
:100B640071040319B62DB72DE62DF501F50AC32D31
:100B74000130F035F10D890BBB2D0130F400740800
:100B8400F507F11FC62DC72DBA2D0130F735F80D25
:100B9400890BC82D71087302031DD22D70087202CF
:100BA400031CD52DD62DDB2D7008F2027108F33B02
:100BB40077140130F136F00C890BDC2D0130F5028D
:100BC400031DE52DE62DC72D76080319EA2DEB2D1F
:100BD400F02DF709F809F70A0319F80A7808F10063
:100BE4007708F000080020000D080F39A9000D084F
:100BF400A4000430A436890BFC2D24080F39A80066
:100C04008C1C052E062E132E29082807F900FA013C
:100C1400FA0D8431FB24853120002908280722009D
:100C24008F0020000C1D172E182E392E2908A40021
:100C3400A5012408F0002508F1002808A600A70152
:100C44002608F2002708F3008431B32485317108A3
:100C5400FA007008F9008431FB248531200028084B
:100C6400F000290884318124853122008F0020007E
:100C74008C1D3D2E3E2E572E2808F0002908843165
:100C8400D22485312000A400A5012408F9002508F8
:100C9400FA008431FB24853120002808F00029085B
:100CA4008431D224853122008F0006302000A50033
:100CB4001330A400AD30890B5D2EA40B5D2EA50B63
:100CC4005D2E00320800F200CB2F22008E168E1A01
:100CD4006C2E6F2E22000E16712E22000E120E1A8A
:100CE400742E772E22008E15792E22008E118E19E5
:100CF4007C2E7F2E22000E15812E22000E110E193D
:100D0400842E872E22008E14892E22008E108E1897
:100D14008C2E8F2E22000E14912E22000E100E13F4
:100D2400F32F22000E150E19982E9B2E22008E14DE
:100D34009D2E22008E100E138E120E128E110E1086
:100D4400F32F22008E158E19A82EAB2E22000E161C
:100D5400AD2E22000E120E1AB02EB32E22000E1744
:100D6400B52E22000E130E1BB82EBB2E22008E149D
:100D7400BD2E22008E108E18C02EC32E22000E14FB
:100D8400C52E22000E108E120E11F32F22000E1506
:100D94000E19CD2ED02E22008E15D22E22008E11A9
:100DA4008E19D52ED82E22000E17DA2E22000E13FD
:100DB4000E1BDD2EE02E22008E14E22E22008E1059
:100DC4008E18E52EE82E22000E14EA2E22000E10B4
:100DD4008E120E12F32F22000E150E19F22EF52E7E
:100DE40022008E14F72E22008E108E18FA2EFD2E5D
:100DF40022000E17FF2E22000E130E1B022F052FAA
:100E040022008E16072F22008E128E110E100E1243
:100E1400F32F22000E170E1B102F132F22008E16F5
:100E2400152F22008E128E1A182F1B2F22008E15BA
:100E34001D2F22008E118E19202F232F22000E1514
:100E4400252F22000E110E19282F2B2F22000E14ED
:100E54002D2F22000E100E128E10F32F22000E17CB
:100E64000E1B352F382F22000E163A2F22000E1299
:100E74000E1A3D2F402F22008E16422F22008E1272
:100E84008E1A452F482F22008E154A2F22008E11CC
:100E94008E194D2F502F22000E15522F22000E11A5
:100EA4000E19552F582F22000E145A2F22000E10FF
:100EB4008E10F32F22000E150E19612F642F2200BD
:100EC4008E14662F22008E108E18692F6C2F22002C
:100ED4000E146E2F22000E100E130E128E128E118F
:100EE400F32F22000E170E1B782F7B2F22000E16D5
:100EF4007D2F22000E120E1A802F832F22008E16B1
:100F0400852F22008E128E1A882F8B2F22008E148A
:100F14008D2F22008E108E18902F932F22008E1565
:100F2400952F22008E118E19982F9B2F22000E15BB
:100F34009D2F22000E110E19A02FA32F22000E1494
:100F4400A52F22000E10F32F22008E168E1AAB2F1F
:100F5400AE2F22000E17B02F22000E130E1BB32F3C
:100F6400B62F22000E15B82F22000E110E19BB2F1A
:100F7400BE2F22008E14C02F22008E108E18C32F75
:100F8400C62F22000E14C82F22000E100E128E112E
:100F9400F32F7208F000F1017108003A0319D32FFE
:100FA400F32F7008003A0319672E013A0319932EA0
:100FB400033A0319A32E013A0319C82E073A031959
:100FC400ED2E013A03190B2F033A0319302F013A7E
:100FD40003195C2F0F3A0319732F013A0319A62F33
:100FE400F32F080084316A248731AA00FD01A0018F
:0C0FF400A101A201A30120008431702C97
:020000040001F9
:04000E00E239FF1EB6
:00000001FF
