:08000000803102288731FC2F3A
:100F560023000F108F1021000E100F148F14200085
:100F66000E10F2010F18B82FB92FD72F0230F1004B
:100F76008630F0009930890BBE2FF00BBE2FF10B97
:100F8600BE2F000072080319C92FCB2F0130CC2FBA
:100F96000030F200720C2000031C0E1003180E1411
:100FA6000F1CD62FD72FD32F8F18DA2FDB2FB52F65
:100FB6000230F1008630F0009930890BE02FF00BFB
:100FC600E02FF10BE02F000072080319EB2FED2F35
:100FD6000130EE2F0030F200720C2000031C0E10C0
:100FE60003180E148F1CF82FF92FF52FB52F80310B
:0A0FF6000228F20120008731AB2F22
:020000040001F9
:04000E00E23FFF1EB0
:00000001FF
