:08000000803102288731FD2F39
:100D580021000D108D100D118D110D128D120D1316
:100D68008D13080023008D018631AC26863186312B
:100D7800C1268631BB2E8031022822000D148D1029
:100D88000D118D110D128D120D138D130D30F100F3
:100D9800AF30F000B630890BCF2EF00BCF2EF10B11
:100DA800CF2E003222000D108D140D118D110D1251
:100DB8008D120D138D130D30F100AF30F000B630E9
:100DC800890BE42EF00BE42EF10BE42E0032220006
:100DD8000D108D100D158D110D128D120D138D1313
:100DE8000D30F100AF30F000B630890BF92EF00B62
:100DF800F92EF10BF92E003222000D108D100D1175
:100E08008D150D128D120D138D130D30F100AF30AD
:100E1800F000B630890B0E2FF00B0E2FF10B0E2FB2
:100E2800003222000D108D100D118D110D168D122E
:100E38000D138D130D30F100AF30F000B630890B73
:100E4800232FF00B232FF10B232F003222000D103C
:100E58008D100D118D110D128D160D138D130D3072
:100E6800F100AF30F000B630890B382FF00B382F77
:100E7800F10B382F003222000D108D100D118D113D
:100E88000D128D120D178D130D30F100AF30F000DB
:100E9800B630890B4D2FF00B4D2FF10B4D2F003233
:100EA80022000D108D100D118D110D128D120D13C4
:100EB8008D170D30F100AF30F000B630890B622F7E
:100EC800F00B622FF10B622F003222000D108D10F3
:100ED8000D118D110D128D120D178D130D30F1009E
:100EE800AF30F000B630890B772FF00B772FF10B6E
:100EF800772F003222000D108D100D118D110D125B
:100F08008D160D138D130D30F100AF30F000B63093
:100F1800890B8C2FF00B8C2FF10B8C2F00322200B9
:100F28000D108D100D118D110D168D120D138D13C1
:100F38000D30F100AF30F000B630890BA12FF00B67
:100F4800A12FF10BA12F003222000D108D100D11D1
:100F58008D150D128D120D138D130D30F100AF305C
:100F6800F000B630890BB62FF00BB62FF10BB62F69
:100F7800003222000D108D100D158D110D128D12DD
:100F88000D138D130D30F100AF30F000B630890B22
:100F9800CB2FF00BCB2FF10BCB2F003222000D10F3
:100FA8008D140D118D110D128D120D138D130D3021
:100FB800F100AF30F000B630890BE02FF00BE02FD6
:100FC800F10BE02F003222000D148D100D118D1140
:100FD8000D128D120D138D130D30F100AF30F0008E
:100FE800B630890BF52FF00BF52FF10BF52F0032EA
:080FF800080020008631B62E2E
:020000040001F9
:04000E00E23FFF1EB0
:00000001FF
