:08000000803102288731FD2F39
:100ECC0021008F0187316E278731682F80310228EE
:100EDC0021008C0123008C018D0121008D01220049
:100EEC000C108C100C118C110C128C120D108D100E
:100EFC000D110C108C100C158C150C128C120D1471
:100F0C008D100D117F30F100D430F0003230890B90
:100F1C008D2FF00B8D2FF10B8D2F22000C108C14BC
:100F2C000C118C110C168C120D148D100D117F30B0
:100F3C00F100D430F0003230890BA22FF00BA22F2D
:100F4C00F10BA22F22000C148C100C118C110C1212
:100F5C008C160D148D100D117F30F100D430F00073
:100F6C003230890BB72FF00BB72FF10BB72F2200B4
:100F7C000C148C100C118C110C168C120D108D1471
:100F8C000D117F30F100D430F0003230890BCC2FB2
:100F9C00F00BCC2FF10BCC2F22000C148C100C115D
:100FAC008C150C128C120D108D100D157F30F1005C
:100FBC00D430F0003230890BE12FF00BE12FF10B24
:100FCC00E12F22000C108C140C118C150C128C12AD
:100FDC000D108D140D117F30F100D430F000323033
:100FEC00890BF62FF00BF62FF10BF62F08002000D3
:040FFC008731662FA4
:020000040001F9
:04000E00E23FFF1EB0
:00000001FF
