:08000000803102288731FD2F39
:100C0E00FF3022008F000D30F100AF30F000B63013
:100C1E00890B0F2EF00B0F2EF10B0F2E0032220030
:100C2E008F010D30F100AF30F000B630890B1D2E64
:100C3E00F00B1D2EF10B1D2E003208000F3022007E
:100C4E008F000D30F100AF30F000B630890B2D2E35
:100C5E00F00B2D2EF10B2D2E0032F03022008F00D6
:100C6E000D30F100AF30F000B630890B3C2EF00B9A
:100C7E003C2EF10B3C2E00320800AA3022008F00D1
:100C8E000D30F100AF30F000B630890B4C2EF00B6A
:100C9E004C2EF10B4C2E0032553022008F000D30B1
:100CAE00F100AF30F000B630890B5B2EF00B5B2EEF
:100CBE00F10B5B2E00320800333022008F000D3016
:100CCE00F100AF30F000B630890B6B2EF00B6B2EAF
:100CDE00F10B6B2E0032333022008F000D30F100FD
:100CEE00AF30F000B630890B7A2EF00B7A2EF10B66
:100CFE007A2E00320800013022008F000D30F100F4
:100D0E00AF30F000B630890B8A2EF00B8A2EF10B25
:100D1E008A2E0032803022008F000D30F100AF306D
:100D2E00F000B630890B992EF00B992EF10B992EFF
:100D3E0000320800813022008F000D30F100AF30FC
:100D4E00F000B630890BA92EF00BA92EF10BA92EAF
:100D5E000032C33022008F000D30F100AF30F000B2
:100D6E00B630890BB82EF00BB82EF10BB82E003220
:100D7E00E73022008F000D30F100AF30F000B630BA
:100D8E00890BC72EF00BC72EF10BC72E0032FF308A
:100D9E0022008F000D30F100AF30F000B630890B1D
:100DAE00D62EF00BD62EF10BD62E00320800E030E8
:100DBE0022008F000D30F100AF30F000B630890BFD
:100DCE00E62EF00BE62EF10BE62E00320730220057
:100DDE008F000D30F100AF30F000B630890BF52EDC
:100DEE00F00BF52EF10BF52E0032183022008F008D
:100DFE000D30F100AF30F000B630890B042FF00B40
:100E0E00042FF10B042F0032813022008F000D30A1
:100E1E00F100AF30F000B630890B132FF00B132F0B
:100E2E00F10B132F00320800013022008F000D301D
:100E3E00F100AF30F000B630890B232FF00B232FCB
:100E4E00F10B232F0032033022008F000D30F10002
:100E5E00AF30F000B630890B322FF00B322FF10B82
:100E6E00322F0032073022008F000D30F100AF30EC
:100E7E00F000B630890B412FF00B412FF10B412FB3
:100E8E0000320F3022008F000D30F100AF30F00035
:100E9E00B630890B502FF00B502FF10B502F003224
:100EAE000800FE3022008F000D30F100AF30F00050
:100EBE00B630890B602FF00B602FF10B602F0032D4
:100ECE00013022008F000D30F100AF30F000B6304F
:100EDE00890B6F2FF00B6F2FF10B6F2F0032F0304D
:100EEE0022008F000D30F100AF30F000B630890BCC
:100EFE007E2FF00B7E2FF10B7E2F00320F30220053
:100F0E008F000D30F100AF30F000B630890B8D2F11
:100F1E00F00B8D2FF10B8D2F003208000F302100BA
:100F2E008E0023008F0121008F0122008F012000EF
:100F3E000E080F39F200F3017208F4007308F50081
:100F4E00CC2F863125268731EE2F863144268731E8
:100F5E00EE2F8631A1268731EE2F8631632687311B
:100F6E00EE2F863107268731EE2F86318226873186
:100F7E00EE2F8631DE268731EE2F87311B27873104
:100F8E00EE2F873158278731EE2F7508003A031957
:100F9E00D12FEE2F7408003A0319A82F013A031926
:100FAE00AC2F033A0319B02F013A0319B42F073AA5
:100FBE000319B82F013A0319BC2F033A0319C02F96
:100FCE00013A0319C42F0F3A0319C82FEE2F0D3013
:100FDE00F300AF30F200B630890BF32FF20BF32F84
:100FEE00F30BF32F00329E2F803102282000873121
:020FFE00952F2D
:020000040001F9
:04000E00E23FFF1EB0
:00000001FF
