:08000000803102288731FD2F39
:100F880021000C148C140F108F1023008C018F017A
:100F980022000F148F1020000C1CD32FD42FD82F11
:100FA8008C1CD72FD82FCC2F22000F108F14200085
:100FB8000C18DF2FE02FE42F8C18E32FE42FD82F05
:100FC80022000F108F1020008C18EB2FED2F01300E
:100FD800EE2F0030F0000C18F22FF42F0130F52F0F
:100FE800003070060319F92FFA2FE42FCC2F803127
:080FF800022820008731C42FFC
:020000040001F9
:04000E00E23FFF1EB0
:00000001FF
