:08000000803102288731DE2F58
:100D260008000934003409340034FE0012001E00A5
:100D3600FE0B992E0034BF348634DB34CF34E634D0
:100D4600ED34FD348734FF34E734F601F501F50A56
:100D5600F4017908203E86008701010820008E00F4
:100D66007708203E8600870101088F00FF30F907CB
:100D7600FF30FA3DFA1FC02EC12ED12E0930F900E0
:100D86000030FA00FF30F707FF30F83DF81FCC2E91
:100D9600CD2ED12E0930F7000030F8000D30FC00C2
:100DA600AF30FB00B630890BD62EFB0BD62EFC0BD4
:100DB600D62E0032080023008F0121008E018F01FC
:100DC60023000D108D1021000D148D1422008F01AB
:100DD6008E0120000D1CF02EF12EF82E8D1CF42E07
:100DE600F52EF82E86319326863120000D1CFC2E1A
:100DF600FD2E042F8D18002F012F042F87311F275A
:100E0600863120000D18082F092F102F8D1C0C2F4E
:100E16000D2F102F8631A826863120000D18142F8D
:100E2600152FEC2E8D18182F192FEC2E87316327CE
:100E36008631EC2E80310228F601F60AF501F4011E
:100E46007208203E86008701010820008E00700887
:100E5600203E8600870101088F000130F20700302E
:100E6600F33D7308803AFB0080307B02031D3D2F63
:100E76000A307202031C402F412F562FF201F30154
:100E86000130F0070030F13D7108803AFB008030F8
:100E96007B02031D502F0A307002031C532F542F60
:100EA600562FF001F1010D30FC00AF30FB00B630DB
:100EB600890B5B2FFB0B5B2FFC0B5B2F00320800B3
:100EC6007603031D672F682FA72F7208203E860022
:100ED6008701010820008E007008203E86008701E9
:100EE60001088F000230F2070030F33D7308803AA4
:100EF600FB0080307B02031D822F0A307202031C26
:100F0600852F862F9B2FF201F3010130F007003069
:100F1600F13D7108803AFB0080307B02031D952F5E
:100F26000A307002031C982F992F9B2FF001F101B4
:100F36000D30FC00AF30FB00B630890BA02FFB0B49
:100F4600A02FFC0BA02F00327503031DAB2FAC2F77
:100F5600DD2F7908203E86008701010820008E00DB
:100F66007708203E8600870101088F00FE30F907CA
:100F7600FF30FA3DFA1FC02FC12FD12F0930F900DB
:100F86000030FA00FF30F707FF30F83DF81FCC2F8E
:100F9600CD2FD12F0930F7000030F8000D30FC00BE
:100FA600AF30FB00B630890BD62FFB0BD62FFC0BD0
:100FB600D62F0032080094308400863085007730C2
:100FC60086000030870004308631982687319E30AF
:100FD60084008630850020308600003087000A3085
:100FE600863198268731F001F101F201F301F4010F
:0A0FF600F501F60120008631DE2E21
:020000040001F9
:04000E00E23FFF1EB0
:00000001FF
