:08000000803102288731FD2F39
:100F840021000E148E140E158E150F108F100F11D4
:100F940022000F108F100F11E42F20000E18D32FF2
:100FA400D42FD62F22000F1420008E18DA2FDB2F17
:100FB400DD2F22008F1420000E19E12FE22FE42FE1
:100FC40022000F1522000F18E82FE92FF12F8F1898
:100FD400EC2FED2FF12F0F1DF02FF12FCF2F20002D
:100FE4008E19F52FF62FE42F22000F108F100F11FA
:0C0FF400E42F8031022820008731C22F3A
:020000040001F9
:04000E00E239FF1EB6
:00000001FF
