:08000000803102288731FD2F39
:100F280023008D0121008D0122008D01F2010D3079
:100F3800F100AF30F000B630890BA02FF00BA02FD6
:100F4800F10BA02F00320130F000720AAC2FF035FF
:100F5800890BAB2F7008F100710822008D04013055
:100F6800F0007208FF3E890ABA2FF035890BB92FB5
:100F78007008FF3AF10071088D050130F000700823
:100F8800F20708307202031CCA2FCB2F9B2F0830A0
:100F9800F3000D30F100AF30F000B630890BD22FDE
:100FA800F00BD22FF10BD22F00320130F000730A70
:100FB800DE2FF035890BDD2F7008FF3AF10071083C
:100FC80022008D050130F0007308FF3E890AED2FDD
:100FD800F035890BEC2F7008F10071088D04013091
:100FE800F3027308031DF92FFA2FCD2F9A2F8031A2
:080FF800022820008731942F2C
:020000040001F9
:04000E00E23FFF1EB0
:00000001FF
